{
  "address": "0x7680D4B43f3d1d54d6cfEeB2169463bFa7a6cf0d",
  "abi": [
    {
      "inputs": [],
      "stateMutability": "nonpayable",
      "type": "constructor"
    },
    {
      "anonymous": false,
      "inputs": [
        {
          "indexed": true,
          "internalType": "uint24",
          "name": "fee",
          "type": "uint24"
        },
        {
          "indexed": true,
          "internalType": "int24",
          "name": "tickSpacing",
          "type": "int24"
        }
      ],
      "name": "FeeAmountEnabled",
      "type": "event"
    },
    {
      "anonymous": false,
      "inputs": [
        {
          "indexed": true,
          "internalType": "address",
          "name": "oldOwner",
          "type": "address"
        },
        {
          "indexed": true,
          "internalType": "address",
          "name": "newOwner",
          "type": "address"
        }
      ],
      "name": "OwnerChanged",
      "type": "event"
    },
    {
      "anonymous": false,
      "inputs": [
        {
          "indexed": true,
          "internalType": "address",
          "name": "token0",
          "type": "address"
        },
        {
          "indexed": true,
          "internalType": "address",
          "name": "token1",
          "type": "address"
        },
        {
          "indexed": true,
          "internalType": "uint24",
          "name": "fee",
          "type": "uint24"
        },
        {
          "indexed": false,
          "internalType": "int24",
          "name": "tickSpacing",
          "type": "int24"
        },
        {
          "indexed": false,
          "internalType": "address",
          "name": "pool",
          "type": "address"
        }
      ],
      "name": "PoolCreated",
      "type": "event"
    },
    {
      "inputs": [
        {
          "internalType": "address",
          "name": "tokenA",
          "type": "address"
        },
        {
          "internalType": "address",
          "name": "tokenB",
          "type": "address"
        },
        {
          "internalType": "uint24",
          "name": "fee",
          "type": "uint24"
        }
      ],
      "name": "createPool",
      "outputs": [
        {
          "internalType": "address",
          "name": "pool",
          "type": "address"
        }
      ],
      "stateMutability": "nonpayable",
      "type": "function"
    },
    {
      "inputs": [
        {
          "internalType": "uint24",
          "name": "fee",
          "type": "uint24"
        },
        {
          "internalType": "int24",
          "name": "tickSpacing",
          "type": "int24"
        }
      ],
      "name": "enableFeeAmount",
      "outputs": [],
      "stateMutability": "nonpayable",
      "type": "function"
    },
    {
      "inputs": [
        {
          "internalType": "uint24",
          "name": "",
          "type": "uint24"
        }
      ],
      "name": "feeAmountTickSpacing",
      "outputs": [
        {
          "internalType": "int24",
          "name": "",
          "type": "int24"
        }
      ],
      "stateMutability": "view",
      "type": "function"
    },
    {
      "inputs": [
        {
          "internalType": "address",
          "name": "",
          "type": "address"
        },
        {
          "internalType": "address",
          "name": "",
          "type": "address"
        },
        {
          "internalType": "uint24",
          "name": "",
          "type": "uint24"
        }
      ],
      "name": "getPool",
      "outputs": [
        {
          "internalType": "address",
          "name": "",
          "type": "address"
        }
      ],
      "stateMutability": "view",
      "type": "function"
    },
    {
      "inputs": [],
      "name": "owner",
      "outputs": [
        {
          "internalType": "address",
          "name": "",
          "type": "address"
        }
      ],
      "stateMutability": "view",
      "type": "function"
    },
    {
      "inputs": [],
      "name": "parameters",
      "outputs": [
        {
          "internalType": "address",
          "name": "factory",
          "type": "address"
        },
        {
          "internalType": "address",
          "name": "token0",
          "type": "address"
        },
        {
          "internalType": "address",
          "name": "token1",
          "type": "address"
        },
        {
          "internalType": "uint24",
          "name": "fee",
          "type": "uint24"
        },
        {
          "internalType": "int24",
          "name": "tickSpacing",
          "type": "int24"
        }
      ],
      "stateMutability": "view",
      "type": "function"
    },
    {
      "inputs": [
        {
          "internalType": "address",
          "name": "_owner",
          "type": "address"
        }
      ],
      "name": "setOwner",
      "outputs": [],
      "stateMutability": "nonpayable",
      "type": "function"
    }
  ],
  "transactionHash": "0x293f7aa8f456ae728ff905ce2f5cedd858cf37096e2aa9dd072a4916d89572ff",
  "args": [],
  "numDeployments": 1,
  "solcInputHash": "d9871ba9e6e091710ddf2d51decefef3",
  "bytecode": "0x60a060405234801561001057600080fd5b503060601b608052600380546001600160a01b031916339081179091556040516000907fb532073b38c83145e3e5135377a08bf9aab55bc0fd7c1179cd4fb995d2a5159c908290a36101f4600081815260046020527ffb8cf1d12598d1a039dd1d106665851a96aadf67d0d9ed76fceea282119208b7805462ffffff1916600a9081179091556040519092916000805160206161dd83398151915291a3610bb8600081815260046020527f72dffa9b822156d9cf4b0090fa0b656bcb9cc2b2c60eb6acfc20a34f54b31743805462ffffff1916603c9081179091556040519092916000805160206161dd83398151915291a3612710600081815260046020527f8cc740d51daa94ff54f33bd779c2d20149f524c340519b49181be5a08615f829805462ffffff191660c89081179091556040519092916000805160206161dd83398151915291a36040805163c8992e6160e01b8152600160048201819052602482015233604482015290517343000000000000000000000000000000000000029163c8992e6191606480830192600092919082900301818387803b1580156101b757600080fd5b505af11580156101cb573d6000803e3d6000fd5b5050505060805160601c615ff16101ec600039806105415250615ff16000f3fe608060405234801561001057600080fd5b506004361061006d5760003560e01c806313af4035146100725780631698ee821461009a57806322afcccb146100f2578063890357301461012b5780638a7c195f146101755780638da5cb5b146101a0578063a1671295146101a8575b600080fd5b6100986004803603602081101561008857600080fd5b50356001600160a01b03166101e4565b005b6100d6600480360360608110156100b057600080fd5b5080356001600160a01b03908116916020810135909116906040013562ffffff16610257565b604080516001600160a01b039092168252519081900360200190f35b6101146004803603602081101561010857600080fd5b503562ffffff16610283565b6040805160029290920b8252519081900360200190f35b610133610298565b604080516001600160a01b0396871681529486166020860152929094168383015262ffffff16606083015260029290920b608082015290519081900360a00190f35b6100986004803603604081101561018b57600080fd5b5062ffffff813516906020013560020b6102ce565b6100d6610391565b6100d6600480360360608110156101be57600080fd5b5080356001600160a01b03908116916020810135909116906040013562ffffff166103a0565b6003546001600160a01b031633146101fb57600080fd5b6003546040516001600160a01b038084169216907fb532073b38c83145e3e5135377a08bf9aab55bc0fd7c1179cd4fb995d2a5159c90600090a3600380546001600160a01b0319166001600160a01b0392909216919091179055565b60056020908152600093845260408085208252928452828420905282529020546001600160a01b031681565b60046020526000908152604090205460020b81565b600054600154600280546001600160a01b03938416939283169281169162ffffff600160a01b83041691600160b81b9004900b85565b6003546001600160a01b031633146102e557600080fd5b620f42408262ffffff16106102f957600080fd5b60008160020b13801561031057506140008160020b125b61031957600080fd5b62ffffff8216600090815260046020526040902054600290810b900b1561033f57600080fd5b62ffffff828116600081815260046020526040808220805462ffffff1916600287900b958616179055517fc66a3fdf07232cdd185febcc6579d408c241b47ae2f9907d84be655141eeaecc9190a35050565b6003546001600160a01b031681565b60006103aa610536565b826001600160a01b0316846001600160a01b031614156103c957600080fd5b600080846001600160a01b0316866001600160a01b0316106103ec5784866103ef565b85855b90925090506001600160a01b03821661040757600080fd5b62ffffff8416600090815260046020526040902054600290810b9081900b61042e57600080fd5b6001600160a01b0383811660009081526005602090815260408083208685168452825280832062ffffff8a168452909152902054161561046d57600080fd5b61047a308484888561056d565b6001600160a01b03808516600081815260056020818152604080842089871680865290835281852062ffffff8e168087529084528286208054988a166001600160a01b0319998a1681179091558287529484528286208787528452828620818752845294829020805490971684179096558051600289900b815291820192909252815195995091947f783cca1c0412dd0d695e784568c96da2e9c22ff989357a2e8b1d9b2b4e6b71189281900390910190a45050509392505050565b306001600160a01b037f0000000000000000000000000000000000000000000000000000000000000000161461056b57600080fd5b565b6040805160a0810182526001600160a01b03878116808352878216602080850182905292881684860181905262ffffff888116606080880182905260028a810b6080998a01819052600080546001600160a01b03199081169099178155600180548a16891790558254909816861762ffffff60a01b1916600160a01b85021762ffffff60b81b1916600160b81b91830b90951602939093179092558751808701949094528388019290925282810191909152855180830390910181529301938490528251929091019190912090916106449061069b565b8190604051809103906000f5905080158015610664573d6000803e3d6000fd5b50600080546001600160a01b0319908116909155600180549091169055600280546001600160d01b03191690559695505050505050565b61593b80620006aa8339019056fe6101606040523480156200001257600080fd5b503060601b60805260408051630890357360e41b815290516000918291339163890357309160048083019260a0929190829003018186803b1580156200005757600080fd5b505afa1580156200006c573d6000803e3d6000fd5b505050506040513d60a08110156200008357600080fd5b508051602080830151604084015160608086015160809096015160e896871b6001600160e81b0319166101005291811b6001600160601b031990811660e05292811b831660c052600282810b900b90951b610120529383901b1660a052909350909150620000fc908290620003b8811b6200297217901c565b6001600160801b0316610140816001600160801b031660801b815250507343000000000000000000000000000000000000026001600160a01b031663c8992e61600180856001600160a01b0316638da5cb5b6040518163ffffffff1660e01b815260040160206040518083038186803b1580156200017957600080fd5b505afa1580156200018e573d6000803e3d6000fd5b505050506040513d6020811015620001a557600080fd5b50516040516001600160e01b031960e086901b16815260040180846002811115620001cc57fe5b8152602001836001811115620001de57fe5b8152602001826001600160a01b031681526020019350505050600060405180830381600087803b1580156200021257600080fd5b505af115801562000227573d6000803e3d6000fd5b5050604080516336b91f2b60e01b8152735a16b92a1ec707793171b678ebed9b5ae52978a660048201529051732536fe9ab3f511540f2f9e2ec2a805005c3dd80093506336b91f2b9250602480830192600092919082900301818387803b1580156200029257600080fd5b505af1158015620002a7573d6000803e3d6000fd5b5050604051631a33757d60e01b81527343000000000000000000000000000000000000039250631a33757d915060029060040180828152602001915050602060405180830381600087803b158015620002ff57600080fd5b505af115801562000314573d6000803e3d6000fd5b505050506040513d60208110156200032b57600080fd5b5050604051631a33757d60e01b815273430000000000000000000000000000000000000490631a33757d9060029060040180828152602001915050602060405180830381600087803b1580156200038157600080fd5b505af115801562000396573d6000803e3d6000fd5b505050506040513d6020811015620003ad57600080fd5b506200042692505050565b60008082600281900b620d89e71981620003ce57fe5b05029050600083600281900b620d89e881620003e657fe5b0502905060008460020b83830360020b81620003fe57fe5b0560010190508062ffffff166001600160801b038016816200041c57fe5b0495945050505050565b60805160601c60a05160601c60c05160601c60e05160601c6101005160e81c6101205160e81c6101405160801c61544d620004ee60003980611e4f528061497552806149ac525080610b9b528061272e52806149e05280614a12525080610c8a528061187352806118aa5280612776525080611148528061192d5280611d5552806120c852806127525280613bc552508061089b528061127652806118fc5280611cef52806120425280613a7c52508061270a5280613ff15250806129e9525061544d6000f3fe608060405234801561001057600080fd5b50600436106101595760003560e01c806370cf754a116100c957806370cf754a1461056b5780638206a4d11461057357806385b667291461059b578063883bdbfd146105d8578063a34123a7146106df578063a38807f214610719578063c2d94aec14610774578063c45a01551461079a578063d0c93a7c146107a2578063d21220a7146107c1578063ddca3f43146107c9578063f3058399146107e9578063f30dba93146107f1578063f637731d1461087357610159565b80630dfe16811461015e578063128acb08146101825780631a6865021461022f5780631ad8b03b14610253578063252c09d71461028a57806332148f67146102e15780633850c7bd146103045780633c8a7d8d1461035d57806346141319146103fd578063490e6cbc146104175780634f1eb3d8146104a1578063514ea4bf146104f25780635339c2961461054b575b600080fd5b610166610899565b604080516001600160a01b039092168252519081900360200190f35b610216600480360360a081101561019857600080fd5b6001600160a01b0382358116926020810135151592604082013592606083013516919081019060a081016080820135600160201b8111156101d857600080fd5b8201836020820111156101ea57600080fd5b803590602001918460018302840111600160201b8311171561020b57600080fd5b5090925090506108bd565b6040805192835260208301919091528051918290030190f35b61023761142e565b604080516001600160801b039092168252519081900360200190f35b61025b61143d565b60405180836001600160801b03168152602001826001600160801b031681526020019250505060405180910390f35b6102a7600480360360208110156102a057600080fd5b5035611457565b6040805163ffffffff909516855260069390930b60208501526001600160a01b039091168383015215156060830152519081900360800190f35b610302600480360360208110156102f757600080fd5b503561ffff1661149c565b005b61030c61154d565b604080516001600160a01b03909816885260029690960b602088015261ffff9485168787015292841660608701529216608085015260ff90911660a0840152151560c0830152519081900360e00190f35b610216600480360360a081101561037357600080fd5b6001600160a01b03823516916020810135600290810b92604083013590910b916001600160801b036060820135169181019060a081016080820135600160201b8111156103bf57600080fd5b8201836020820111156103d157600080fd5b803590602001918460018302840111600160201b831117156103f257600080fd5b50909250905061159d565b610405611813565b60408051918252519081900360200190f35b6103026004803603608081101561042d57600080fd5b6001600160a01b038235169160208101359160408201359190810190608081016060820135600160201b81111561046357600080fd5b82018360208201111561047557600080fd5b803590602001918460018302840111600160201b8311171561049657600080fd5b509092509050611819565b61025b600480360360a08110156104b757600080fd5b506001600160a01b03813516906020810135600290810b91604081013590910b906001600160801b0360608201358116916080013516611c2b565b61050f6004803603602081101561050857600080fd5b5035611dfe565b604080516001600160801b0396871681526020810195909552848101939093529084166060840152909216608082015290519081900360a00190f35b6104056004803603602081101561056157600080fd5b503560010b611e3b565b610237611e4d565b6103026004803603604081101561058957600080fd5b5060ff81358116916020013516611e71565b61025b600480360360608110156105b157600080fd5b506001600160a01b03813516906001600160801b0360208201358116916040013516611f74565b610646600480360360208110156105ee57600080fd5b810190602081018135600160201b81111561060857600080fd5b82018360208201111561061a57600080fd5b803590602001918460208302840111600160201b8311171561063b57600080fd5b509092509050612160565b604051808060200180602001838103835285818151815260200191508051906020019060200280838360005b8381101561068a578181015183820152602001610672565b50505050905001838103825284818151815260200191508051906020019060200280838360005b838110156106c95781810151838201526020016106b1565b5050505090500194505050505060405180910390f35b610216600480360360608110156106f557600080fd5b508035600290810b91602081013590910b90604001356001600160801b03166121ed565b6107436004803603604081101561072f57600080fd5b508035600290810b9160200135900b612322565b6040805160069490940b84526001600160a01b03909216602084015263ffffffff1682820152519081900360600190f35b6103026004803603602081101561078a57600080fd5b50356001600160a01b0316612511565b610166612708565b6107aa61272c565b6040805160029290920b8252519081900360200190f35b610166612750565b6107d1612774565b6040805162ffffff9092168252519081900360200190f35b610405612798565b6108116004803603602081101561080757600080fd5b503560020b61279e565b604080516001600160801b039099168952600f9790970b602089015287870195909552606087019390935260069190910b60808601526001600160a01b031660a085015263ffffffff1660c0840152151560e083015251908190036101000190f35b6103026004803603602081101561088957600080fd5b50356001600160a01b0316612808565b7f000000000000000000000000000000000000000000000000000000000000000081565b6000806108c86129de565b856108ff576040805162461bcd60e51b8152602060048201526002602482015261415360f01b604482015290519081900360640190fd5b6040805160e0810182526000546001600160a01b0381168252600160a01b8104600290810b810b900b602083015261ffff600160b81b8204811693830193909352600160c81b810483166060830152600160d81b8104909216608082015260ff600160e81b8304811660a0830152600160f01b909204909116151560c0820181905261098a57600080fd5b876109d55780600001516001600160a01b0316866001600160a01b03161180156109d0575073fffd8963efd1fc6a506488495d951d5263988d266001600160a01b038716105b610a07565b80600001516001600160a01b0316866001600160a01b0316108015610a0757506401000276a36001600160a01b038716115b610a3e576040805162461bcd60e51b815260206004820152600360248201526214d41360ea1b604482015290519081900360640190fd5b6000805460ff60f01b191681556040805160c08101909152808a610a6d5760048460a0015160ff16901c610a80565b60108460a0015160ff1681610a7e57fe5b065b60ff1681526004546001600160801b03166020820152604001610aa1612a15565b63ffffffff168152602001600060060b815260200160006001600160a01b031681526020016000151581525090506000808913905060006040518060e001604052808b81526020016000815260200185600001516001600160a01b03168152602001856020015160020b81526020018c610b1d57600254610b21565b6001545b815260200160006001600160801b0316815260200184602001516001600160801b031681525090505b805115801590610b705750886001600160a01b031681604001516001600160a01b031614155b15610f3a57610b7d6153dd565b60408201516001600160a01b031681526060820151610bc0906006907f00000000000000000000000000000000000000000000000000000000000000008f612a19565b15156040830152600290810b810b60208301819052620d89e719910b1215610bf157620d89e7196020820152610c10565b6020810151620d89e860029190910b1315610c1057620d89e860208201525b610c1d8160200151612b5b565b6001600160a01b031660608201526040820151610cae908d610c57578b6001600160a01b031683606001516001600160a01b031611610c71565b8b6001600160a01b031683606001516001600160a01b0316105b610c7f578260600151610c81565b8b5b60c085015185517f0000000000000000000000000000000000000000000000000000000000000000612e82565b60c085015260a084015260808301526001600160a01b031660408301528215610d1057610ce48160c00151826080015101613074565b825103825260a0810151610d0690610cfb90613074565b60208401519061308a565b6020830152610d4b565b610d1d8160a00151613074565b825101825260c08101516080820151610d4591610d3a9101613074565b6020840151906130a6565b60208301525b835160ff1615610d91576000846000015160ff168260c0015181610d6b57fe5b60c0840180519290910491829003905260a0840180519091016001600160801b03169052505b60c08201516001600160801b031615610dd057610dc48160c00151600160801b8460c001516001600160801b03166130bc565b60808301805190910190525b80606001516001600160a01b031682604001516001600160a01b03161415610ef957806040015115610ed0578360a00151610e5a57610e38846040015160008760200151886040015188602001518a60600151600861316c909695949392919063ffffffff16565b6001600160a01b03166080860152600690810b900b6060850152600160a08501525b6000610ea682602001518e610e7157600154610e77565b84608001515b8f610e86578560800151610e8a565b6002545b608089015160608a015160408b015160059594939291906132fe565b90508c15610eb2576000035b610ec08360c00151826133b8565b6001600160801b031660c0840152505b8b610edf578060200151610ee8565b60018160200151035b600290810b900b6060830152610f34565b80600001516001600160a01b031682604001516001600160a01b031614610f3457610f27826040015161346e565b600290810b900b60608301525b50610b4a565b836020015160020b816060015160020b1461100857600080610f8886604001518660400151886020015188602001518a606001518b60800151600861375a909695949392919063ffffffff16565b604085015160608601516000805461ffff60c81b1916600160c81b61ffff958616021761ffff60b81b1916600160b81b95909416949094029290921762ffffff60a01b1916600160a01b62ffffff60029490940b9390931692909202919091176001600160a01b0319166001600160a01b039091161790555061102d9050565b6040810151600080546001600160a01b0319166001600160a01b039092169190911790555b8060c001516001600160801b031683602001516001600160801b0316146110735760c0810151600480546001600160801b0319166001600160801b039092169190911790555b8a156110c357608081015160015560a08101516001600160801b0316156110be5760a0810151600380546001600160801b031981166001600160801b03918216909301169190911790555b611109565b608081015160025560a08101516001600160801b0316156111095760a0810151600380546001600160801b03808216600160801b92839004821690940116029190911790555b8115158b15151461112257602081015181518b0361112f565b80600001518a0381602001515b90965094508a15611268576000851215611171576111717f00000000000000000000000000000000000000000000000000000000000000008d876000036138e0565b600061117b613a2e565b9050336001600160a01b031663fa461e3388888c8c6040518563ffffffff1660e01b815260040180858152602001848152602001806020018281038252848482818152602001925080828437600081840152601f19601f82011690508083019250505095505050505050600060405180830381600087803b1580156111ff57600080fd5b505af1158015611213573d6000803e3d6000fd5b5050505061121f613a2e565b6112298289613b67565b1115611262576040805162461bcd60e51b815260206004820152600360248201526249494160e81b604482015290519081900360640190fd5b50611392565b600086121561129f5761129f7f00000000000000000000000000000000000000000000000000000000000000008d886000036138e0565b60006112a9613b77565b9050336001600160a01b031663fa461e3388888c8c6040518563ffffffff1660e01b815260040180858152602001848152602001806020018281038252848482818152602001925080828437600081840152601f19601f82011690508083019250505095505050505050600060405180830381600087803b15801561132d57600080fd5b505af1158015611341573d6000803e3d6000fd5b5050505061134d613b77565b6113578288613b67565b1115611390576040805162461bcd60e51b815260206004820152600360248201526249494160e81b604482015290519081900360640190fd5b505b60408082015160c083015160608085015184518b8152602081018b90526001600160a01b03948516818701526001600160801b039093169183019190915260020b60808201529151908e169133917fc42079f94a6350d7e6235f29174924f928cc2ac818eb64fed8004e115fbcca679181900360a00190a350506000805460ff60f01b1916600160f01b17905550919890975095505050505050565b6004546001600160801b031681565b6003546001600160801b0380821691600160801b90041682565b60088161ffff811061146857600080fd5b015463ffffffff81169150600160201b810460060b90600160581b81046001600160a01b031690600160f81b900460ff1684565b6114a4613c0f565b6114ac6129de565b60008054600160d81b900461ffff16906114c860088385613c62565b6000805461ffff808416600160d81b810261ffff60d81b1990931692909217909255919250831614611535576040805161ffff80851682528316602082015281517fac49e518f90a358f652e4400164f05a5d8f7e35e7747279bc3a93dbf584e125a929181900390910190a15b50506000805460ff60f01b1916600160f01b17905550565b6000546001600160a01b03811690600160a01b810460020b9061ffff600160b81b8204811691600160c81b8104821691600160d81b8204169060ff600160e81b8204811691600160f01b90041687565b6000806115a8613c0f565b6000856001600160801b0316116115be57600080fd5b60008061160c60405180608001604052808c6001600160a01b031681526020018b60020b81526020018a60020b81526020016116028a6001600160801b0316613d05565b600f0b9052613d16565b9250925050819350809250600080600086111561162e5761162b613a2e565b91505b841561163f5761163c613b77565b90505b336001600160a01b031663d348799787878b8b6040518563ffffffff1660e01b815260040180858152602001848152602001806020018281038252848482818152602001925080828437600081840152601f19601f82011690508083019250505095505050505050600060405180830381600087803b1580156116c157600080fd5b505af11580156116d5573d6000803e3d6000fd5b50505050600086111561172c576116ea613a2e565b6116f48388613b67565b111561172c576040805162461bcd60e51b815260206004820152600260248201526104d360f41b604482015290519081900360640190fd5b841561177c5761173a613b77565b6117448287613b67565b111561177c576040805162461bcd60e51b81526020600482015260026024820152614d3160f01b604482015290519081900360640190fd5b8960020b8b60020b8d6001600160a01b03167f7a53080ba414158be7ec69b987b5fb7d07dee101fe85488f0853ae16239d0bde338d8b8b60405180856001600160a01b03168152602001846001600160801b0316815260200183815260200182815260200194505050505060405180910390a450506000805460ff60f01b1916600160f01b17905550919890975095505050505050565b60025481565b611821613c0f565b6118296129de565b6004546001600160801b03168061186b576040805162461bcd60e51b81526020600482015260016024820152601360fa1b604482015290519081900360640190fd5b60006118a0867f000000000000000000000000000000000000000000000000000000000000000062ffffff16620f4240613f56565b905060006118d7867f000000000000000000000000000000000000000000000000000000000000000062ffffff16620f4240613f56565b905060006118e3613a2e565b905060006118ef613b77565b90508815611922576119227f00000000000000000000000000000000000000000000000000000000000000008b8b6138e0565b8715611953576119537f00000000000000000000000000000000000000000000000000000000000000008b8a6138e0565b336001600160a01b031663e9cbafb085858a8a6040518563ffffffff1660e01b815260040180858152602001848152602001806020018281038252848482818152602001925080828437600081840152601f19601f82011690508083019250505095505050505050600060405180830381600087803b1580156119d557600080fd5b505af11580156119e9573d6000803e3d6000fd5b5050505060006119f7613a2e565b90506000611a03613b77565b905081611a108588613b67565b1115611a48576040805162461bcd60e51b8152602060048201526002602482015261046360f41b604482015290519081900360640190fd5b80611a538487613b67565b1115611a8b576040805162461bcd60e51b8152602060048201526002602482015261463160f01b604482015290519081900360640190fd5b8382038382038115611b1a5760008054600160e81b9004600f16908115611abe578160ff168481611ab857fe5b04611ac1565b60005b90506001600160801b03811615611af457600380546001600160801b038082168401166001600160801b03199091161790555b611b0e818503600160801b8d6001600160801b03166130bc565b60018054909101905550505b8015611ba55760008054600160e81b900460041c600f16908115611b4a578160ff168381611b4457fe5b04611b4d565b60005b90506001600160801b03811615611b7f57600380546001600160801b03600160801b8083048216850182160291161790555b611b99818403600160801b8d6001600160801b03166130bc565b60028054909101905550505b8d6001600160a01b0316336001600160a01b03167fbdbdb71d7860376ba52b25a5028beea23581364a40522f6bcfb86bb1f2dca6338f8f86866040518085815260200184815260200183815260200182815260200194505050505060405180910390a350506000805460ff60f01b1916600160f01b179055505050505050505050505050565b600080611c36613c0f565b6000611c456007338989613f90565b60038101549091506001600160801b0390811690861611611c665784611c75565b60038101546001600160801b03165b60038201549093506001600160801b03600160801b909104811690851611611c9d5783611cb3565b6003810154600160801b90046001600160801b03165b91506001600160801b03831615611d18576003810180546001600160801b031981166001600160801b03918216869003821617909155611d18907f0000000000000000000000000000000000000000000000000000000000000000908a9086166138e0565b6001600160801b03821615611d7e576003810180546001600160801b03600160801b808304821686900382160291811691909117909155611d7e907f0000000000000000000000000000000000000000000000000000000000000000908a9085166138e0565b604080516001600160a01b038a1681526001600160801b0380861660208301528416818301529051600288810b92908a900b9133917f70935338e69775456a85ddef226c395fb668b63fa0115f5f20610b388e6ca9c0919081900360600190a4506000805460ff60f01b1916600160f01b17905590969095509350505050565b60076020526000908152604090208054600182015460028301546003909301546001600160801b0392831693919281811691600160801b90041685565b60066020526000908152604090205481565b7f000000000000000000000000000000000000000000000000000000000000000081565b611e79613c0f565b611e81613fef565b60ff82161580611ea4575060048260ff1610158015611ea45750600a8260ff1611155b8015611ece575060ff81161580611ece575060048160ff1610158015611ece5750600a8160ff1611155b611ed757600080fd5b60008054610ff0600484901b16840160ff908116600160e81b90810260ff60e81b19841617909355919004167f973d8d92bb299f4af6ce49b52a8adb85ae46b9f214c4c4fc06ac77401237b1336010826040805160ff9390920683168252600f600486901c16602083015286831682820152918516606082015290519081900360800190a150506000805460ff60f01b1916600160f01b17905550565b600080611f7f613c0f565b611f87613fef565b6003546001600160801b0390811690851611611fa35783611fb0565b6003546001600160801b03165b6003549092506001600160801b03600160801b909104811690841611611fd65782611fea565b600354600160801b90046001600160801b03165b90506001600160801b0382161561206b576003546001600160801b038381169116141561201957600019909101905b600380546001600160801b031981166001600160801b0391821685900382161790915561206b907f000000000000000000000000000000000000000000000000000000000000000090879085166138e0565b6001600160801b038116156120f1576003546001600160801b03828116600160801b90920416141561209c57600019015b600380546001600160801b03600160801b8083048216859003821602918116919091179091556120f1907f000000000000000000000000000000000000000000000000000000000000000090879084166138e0565b604080516001600160801b0380851682528316602082015281516001600160a01b0388169233927f596b573906218d3411850b26a6b437d6c4522fdb43d2d2386263f86d50b8b151929081900390910190a36000805460ff60f01b1916600160f01b1790559094909350915050565b60608061216b6129de565b6121e2612176612a15565b858580806020026020016040519081016040528093929190818152602001838360200280828437600092018290525054600454600896959450600160a01b820460020b935061ffff600160b81b8304811693506001600160801b0390911691600160c81b900416614088565b915091509250929050565b6000806121f8613c0f565b600080600061224b6040518060800160405280336001600160a01b031681526020018a60020b81526020018960020b815260200161223e896001600160801b0316613d05565b600003600f0b9052613d16565b925092509250816000039450806000039350600085118061226c5750600084115b156122ab576003830180546001600160801b038082168089018216600160801b93849004831689019092169092029091176001600160801b0319161790555b604080516001600160801b0388168152602081018790528082018690529051600289810b92908b900b9133917f0c396cd989a39f4459b5fa1aed6a9a8dcdbc45908acfd67e028cd568da98982c919081900360600190a450506000805460ff60f01b1916600160f01b179055509094909350915050565b600080600061232f6129de565b61233985856141e0565b600285810b810b60009081526005602052604080822087840b90930b825281206003830154600681900b93600160381b82046001600160a01b0316928492600160d81b810463ffffffff169284929091600160f81b900460ff168061239d57600080fd5b6003820154600681900b9850600160381b81046001600160a01b03169650600160d81b810463ffffffff169450600160f81b900460ff16806123de57600080fd5b50506040805160e0810182526000546001600160a01b0381168252600160a01b8104600290810b810b810b6020840181905261ffff600160b81b8404811695850195909552600160c81b830485166060850152600160d81b8304909416608084015260ff600160e81b8304811660a0850152600160f01b909204909116151560c08301529093508e810b91900b121590506124875750939094039650900393509003905061250a565b8a60020b816020015160020b12156124fb5760006124a3612a15565b60208301516040840151600454606086015193945060009384936124d9936008938893879392916001600160801b03169061316c565b9a9003989098039b50509490960392909203965090910303925061250a915050565b50949093039650039350900390505b9250925092565b612519613fef565b6040805163e12f3a6160e01b815230600482015290516003604360981b019163aad3ec96918491849163e12f3a6191602480820192602092909190829003018186803b15801561256857600080fd5b505afa15801561257c573d6000803e3d6000fd5b505050506040513d602081101561259257600080fd5b5051604080516001600160e01b031960e086901b1681526001600160a01b03909316600484015260248301919091525160448083019260209291908290030181600087803b1580156125e357600080fd5b505af11580156125f7573d6000803e3d6000fd5b505050506040513d602081101561260d57600080fd5b50506040805163e12f3a6160e01b815230600482015290516004604360981b019163aad3ec96918491849163e12f3a6191602480820192602092909190829003018186803b15801561265e57600080fd5b505afa158015612672573d6000803e3d6000fd5b505050506040513d602081101561268857600080fd5b5051604080516001600160e01b031960e086901b1681526001600160a01b03909316600484015260248301919091525160448083019260209291908290030181600087803b1580156126d957600080fd5b505af11580156126ed573d6000803e3d6000fd5b505050506040513d602081101561270357600080fd5b505050565b7f000000000000000000000000000000000000000000000000000000000000000081565b7f000000000000000000000000000000000000000000000000000000000000000081565b7f000000000000000000000000000000000000000000000000000000000000000081565b7f000000000000000000000000000000000000000000000000000000000000000081565b60015481565b60056020526000908152604090208054600182015460028301546003909301546001600160801b03831693600160801b909304600f0b9290600681900b90600160381b81046001600160a01b031690600160d81b810463ffffffff1690600160f81b900460ff1688565b6000546001600160a01b03161561284b576040805162461bcd60e51b8152602060048201526002602482015261414960f01b604482015290519081900360640190fd5b60006128568261346e565b905060008061286e612866612a15565b6008906142a9565b6040805160e0810182526001600160a01b038816808252600288810b6020808501829052600085870181905261ffff898116606088018190529089166080880181905260a08801839052600160c0909801979097528154600160f01b6001600160a01b0319909116871762ffffff60a01b1916600160a01b62ffffff9787900b97909716969096029590951763ffffffff60b81b1916600160c81b9091021761ffff60d81b1916600160d81b9096029590951761ffff60e81b191692909217909355835191825281019190915281519395509193507f98636036cb66a9c19a37435efc1e90142190214e8abeb821bdba3f2990dd4c9592918290030190a150505050565b60008082600281900b620d89e7198161298757fe5b05029050600083600281900b620d89e88161299e57fe5b0502905060008460020b83830360020b816129b557fe5b0560010190508062ffffff166001600160801b038016816129d257fe5b0493505050505b919050565b306001600160a01b037f00000000000000000000000000000000000000000000000000000000000000001614612a1357600080fd5b565b4290565b60008060008460020b8660020b81612a2d57fe5b05905060008660020b128015612a5457508460020b8660020b81612a4d57fe5b0760020b15155b15612a5e57600019015b8315612ad357600080612a70836142f5565b600182810b810b600090815260208d9052604090205460ff83169190911b80016000190190811680151597509294509092509085612ab557888360ff16860302612ac8565b88612abf82614307565b840360ff168603025b965050505050612b51565b600080612ae2836001016142f5565b91509150600060018260ff166001901b031990506000818b60008660010b60010b8152602001908152602001600020541690508060001415955085612b3457888360ff0360ff16866001010102612b4a565b8883612b3f836143a1565b0360ff168660010101025b9650505050505b5094509492505050565b60008060008360020b12612b72578260020b612b7a565b8260020b6000035b9050620d89e8811115612bb8576040805162461bcd60e51b81526020600482015260016024820152601560fa1b604482015290519081900360640190fd5b600060018216612bcc57600160801b612bde565b6ffffcb933bd6fad37aa2d162d1a5940015b6001600160881b031690506002821615612c08576ffff97272373d413259a46990580e213a0260801c5b6004821615612c27576ffff2e50f5f656932ef12357cf3c7fdcc0260801c5b6008821615612c46576fffe5caca7e10e4e61c3624eaa0941cd00260801c5b6010821615612c65576fffcb9843d60f6159c9db58835c9266440260801c5b6020821615612c84576fff973b41fa98c081472e6896dfb254c00260801c5b6040821615612ca3576fff2ea16466c96a3843ec78b326b528610260801c5b6080821615612cc2576ffe5dee046a99a2a811c461f1969c30530260801c5b610100821615612ce2576ffcbe86c7900a88aedcffc83b479aa3a40260801c5b610200821615612d02576ff987a7253ac413176f2b074cf7815e540260801c5b610400821615612d22576ff3392b0822b70005940c7a398e4b70f30260801c5b610800821615612d42576fe7159475a2c29b7443b29c7fa6e889d90260801c5b611000821615612d62576fd097f3bdfd2022b8845ad8f792aa58250260801c5b612000821615612d82576fa9f746462d870fdf8a65dc1f90e061e50260801c5b614000821615612da2576f70d869a156d2a1b890bb3df62baf32f70260801c5b618000821615612dc2576f31be135f97d08fd981231505542fcfa60260801c5b62010000821615612de3576f09aa508b5b7a84e1c677de54f3e99bc90260801c5b62020000821615612e03576e5d6af8dedb81196699c329225ee6040260801c5b62040000821615612e22576d2216e584f5fa1ea926041bedfe980260801c5b62080000821615612e3f576b048a170391f7dc42444e8fa20260801c5b60008460020b1315612e5a578060001981612e5657fe5b0490505b600160201b810615612e6d576001612e70565b60005b60ff16602082901c0192505050919050565b60008080806001600160a01b03808916908a161015818712801590612f07576000612ebb8989620f42400362ffffff16620f42406130bc565b905082612ed457612ecf8c8c8c600161448a565b612ee1565b612ee18b8d8c6001614505565b9550858110612ef2578a9650612f01565b612efe8c8b83866145b0565b96505b50612f51565b81612f1e57612f198b8b8b6000614505565b612f2b565b612f2b8a8c8b600061448a565b9350838860000310612f3f57899550612f51565b612f4e8b8a8a600003856145fc565b95505b6001600160a01b038a8116908716148215612fb457808015612f705750815b612f8657612f81878d8c6001614505565b612f88565b855b9550808015612f95575081155b612fab57612fa6878d8c600061448a565b612fad565b845b9450612ffe565b808015612fbe5750815b612fd457612fcf8c888c600161448a565b612fd6565b855b9550808015612fe3575081155b612ff957612ff48c888c6000614505565b612ffb565b845b94505b8115801561300e57508860000385115b1561301a578860000394505b81801561303957508a6001600160a01b0316876001600160a01b031614155b15613048578589039350613065565b613062868962ffffff168a620f42400362ffffff16613f56565b93505b50505095509550955095915050565b6000600160ff1b821061308657600080fd5b5090565b808203828113156000831215146130a057600080fd5b92915050565b818101828112156000831215146130a057600080fd5b60008080600019858709868602925082811090839003039050806130f257600084116130e757600080fd5b508290049050613165565b8084116130fe57600080fd5b6000848688096000868103871696879004966002600389028118808a02820302808a02820302808a02820302808a02820302808a02820302808a02909103029181900381900460010186841190950394909402919094039290920491909117919091029150505b9392505050565b60008063ffffffff8716613212576000898661ffff1661ffff811061318d57fe5b60408051608081018252919092015463ffffffff808216808452600160201b8304600690810b810b900b6020850152600160581b83046001600160a01b031694840194909452600160f81b90910460ff16151560608301529092508a16146131fe576131fb818a8988614648565b90505b8060200151816040015192509250506132f2565b8688036000806132278c8c858c8c8c8c6146eb565b91509150816000015163ffffffff168363ffffffff1614156132595781602001518260400151945094505050506132f2565b805163ffffffff848116911614156132815780602001518160400151945094505050506132f2565b8151815160208085015190840151918390039286039163ffffffff80841692908516910360060b816132af57fe5b05028460200151018263ffffffff168263ffffffff1686604001518660400151036001600160a01b031602816132e157fe5b048560400151019650965050505050505b97509795505050505050565b600295860b860b60009081526020979097526040909620600181018054909503909455938301805490920390915560038201805463ffffffff600160d81b6001600160a01b03600160381b808504821690960316909402600160381b600160d81b031990921691909117600681810b90960390950b66ffffffffffffff1666ffffffffffffff199095169490941782810485169095039093160263ffffffff60d81b1990931692909217905554600160801b9004600f0b90565b60008082600f0b121561341d57826001600160801b03168260000384039150816001600160801b031610613418576040805162461bcd60e51b81526020600482015260026024820152614c5360f01b604482015290519081900360640190fd5b6130a0565b826001600160801b03168284019150816001600160801b031610156130a0576040805162461bcd60e51b81526020600482015260026024820152614c4160f01b604482015290519081900360640190fd5b60006401000276a36001600160a01b038316108015906134aa575073fffd8963efd1fc6a506488495d951d5263988d266001600160a01b038316105b6134df576040805162461bcd60e51b81526020600482015260016024820152602960f91b604482015290519081900360640190fd5b640100000000600160c01b03602083901b166001600160801b03811160071b81811c6001600160401b03811160061b90811c63ffffffff811160051b90811c61ffff811160041b90811c60ff8111600390811b91821c600f811160021b90811c918211600190811b92831c9790881196179094179092171790911717176080811061357257607f810383901c915061357c565b80607f0383901b91505b908002607f81811c60ff83811c9190911c800280831c81831c1c800280841c81841c1c800280851c81851c1c800280861c81861c1c800280871c81871c1c800280881c81881c1c800280891c81891c1c8002808a1c818a1c1c8002808b1c818b1c1c8002808c1c818c1c1c8002808d1c818d1c1c8002808e1c9c81901c9c909c1c80029c8d901c9e9d607f198f0160401b60c09190911c6001603f1b161760c19b909b1c6001603e1b169a909a1760c29990991c6001603d1b169890981760c39790971c6001603c1b169690961760c49590951c6001603b1b169490941760c59390931c6001603a1b169290921760c69190911c600160391b161760c79190911c600160381b161760c89190911c600160371b161760c99190911c600160361b161760ca9190911c600160351b161760cb9190911c600160341b161760cc9190911c600160331b161760cd9190911c600160321b1617693627a301d71055774c8581026f028f6481ab7f045a5af012a19d003aa9198101608090811d906fdb2df09e81959a81455e260799a0632f8301901d600281810b9083900b1461374b57886001600160a01b031661372f82612b5b565b6001600160a01b031611156137445781613746565b805b61374d565b815b9998505050505050505050565b6000806000898961ffff1661ffff811061377057fe5b60408051608081018252919092015463ffffffff808216808452600160201b8304600690810b810b900b6020850152600160581b83046001600160a01b031694840194909452600160f81b90910460ff1615156060830152909250891614156137df57888592509250506132f2565b8461ffff168461ffff1611801561380057506001850361ffff168961ffff16145b1561380d57839150613811565b8491505b8161ffff168960010161ffff168161382557fe5b06925061383481898989614648565b8a8461ffff1661ffff811061384557fe5b825191018054602084015160408501516060909501511515600160f81b026001600160f81b036001600160a01b03909616600160581b02600160581b600160f81b031960069390930b66ffffffffffffff16600160201b026affffffffffffff000000001963ffffffff90971663ffffffff199095169490941795909516929092171692909217929092161790555097509795505050505050565b604080516001600160a01b038481166024830152604480830185905283518084039091018152606490920183526020820180516001600160e01b031663a9059cbb60e01b1781529251825160009485949389169392918291908083835b6020831061395c5780518252601f19909201916020918201910161393d565b6001836020036101000a0380198251168184511680821785525050505050509050019150506000604051808303816000865af19150503d80600081146139be576040519150601f19603f3d011682016040523d82523d6000602084013e6139c3565b606091505b50915091508180156139f15750805115806139f157508080602001905160208110156139ee57600080fd5b50515b613a27576040805162461bcd60e51b81526020600482015260026024820152612a2360f11b604482015290519081900360640190fd5b5050505050565b604080513060248083019190915282518083039091018152604490910182526020810180516001600160e01b03166370a0823160e01b17815291518151600093849384936001600160a01b037f00000000000000000000000000000000000000000000000000000000000000001693919290918291908083835b60208310613ac75780518252601f199092019160209182019101613aa8565b6001836020036101000a038019825116818451168082178552505050505050905001915050600060405180830381855afa9150503d8060008114613b27576040519150601f19603f3d011682016040523d82523d6000602084013e613b2c565b606091505b5091509150818015613b4057506020815110155b613b4957600080fd5b808060200190516020811015613b5e57600080fd5b50519250505090565b808201828110156130a057600080fd5b604080513060248083019190915282518083039091018152604490910182526020810180516001600160e01b03166370a0823160e01b17815291518151600093849384936001600160a01b037f000000000000000000000000000000000000000000000000000000000000000016939192909182919080838360208310613ac75780518252601f199092019160209182019101613aa8565b600054600160f01b900460ff16613c53576040805162461bcd60e51b81526020600482015260036024820152624c4f4b60e81b604482015290519081900360640190fd5b6000805460ff60f01b19169055565b6000808361ffff1611613ca0576040805162461bcd60e51b81526020600482015260016024820152604960f81b604482015290519081900360640190fd5b8261ffff168261ffff1611613cb6575081613165565b825b8261ffff168161ffff161015613cfc576001858261ffff1661ffff8110613cdb57fe5b01805463ffffffff191663ffffffff92909216919091179055600101613cb8565b50909392505050565b80600f81900b81146129d957600080fd5b6000806000613d236129de565b613d35846020015185604001516141e0565b6040805160e0810182526000546001600160a01b0381168252600160a01b8104600290810b810b900b602080840182905261ffff600160b81b8404811685870152600160c81b84048116606080870191909152600160d81b8504909116608086015260ff600160e81b8504811660a0870152600160f01b909404909316151560c085015288519089015194890151928901519394613dd994919390929091906148e5565b93508460600151600f0b600014613f4e57846020015160020b816020015160020b1215613e2e57613e27613e108660200151612b5b565b613e1d8760400151612b5b565b8760600151614a9a565b9250613f4e565b846040015160020b816020015160020b1215613f245760045460408201516001600160801b0390911690613e8090613e64612a15565b602085015160608601516080870151600894939291879161375a565b6000805461ffff60c81b1916600160c81b61ffff938416021761ffff60b81b1916600160b81b939092169290920217905581516040870151613ed09190613ec690612b5b565b8860600151614a9a565b9350613eee613ee28760200151612b5b565b83516060890151614ade565b9250613efe8187606001516133b8565b600480546001600160801b0319166001600160801b039290921691909117905550613f4e565b613f4b613f348660200151612b5b565b613f418760400151612b5b565b8760600151614ade565b91505b509193909250565b6000613f638484846130bc565b905060008280613f6f57fe5b8486091115613165576000198110613f8657600080fd5b6001019392505050565b6040805160609490941b6001600160601b031916602080860191909152600293840b60e890811b60348701529290930b90911b60378401528051808403601a018152603a90930181528251928201929092206000908152929052902090565b7f00000000000000000000000000000000000000000000000000000000000000006001600160a01b0316638da5cb5b6040518163ffffffff1660e01b815260040160206040518083038186803b15801561404857600080fd5b505afa15801561405c573d6000803e3d6000fd5b505050506040513d602081101561407257600080fd5b50516001600160a01b03163314612a1357600080fd5b60608060008361ffff16116140c8576040805162461bcd60e51b81526020600482015260016024820152604960f81b604482015290519081900360640190fd5b86516001600160401b03811180156140df57600080fd5b50604051908082528060200260200182016040528015614109578160200160208202803683370190505b50915086516001600160401b038111801561412357600080fd5b5060405190808252806020026020018201604052801561414d578160200160208202803683370190505b50905060005b87518110156141d35761417e8a8a8a848151811061416d57fe5b60200260200101518a8a8a8a61316c565b84838151811061418a57fe5b6020026020010184848151811061419d57fe5b60200260200101826001600160a01b03166001600160a01b03168152508260060b60060b81525050508080600101915050614153565b5097509795505050505050565b8060020b8260020b12614220576040805162461bcd60e51b8152602060048201526003602482015262544c5560e81b604482015290519081900360640190fd5b620d89e719600283900b1215614263576040805162461bcd60e51b8152602060048201526003602482015262544c4d60e81b604482015290519081900360640190fd5b620d89e8600282900b13156142a5576040805162461bcd60e51b815260206004820152600360248201526254554d60e81b604482015290519081900360640190fd5b5050565b6040805160808101825263ffffffff9283168082526000602083018190529282019290925260016060909101819052835463ffffffff1916909117909116600160f81b17909155908190565b60020b600881901d9161010090910790565b600080821161431557600080fd5b600160801b821061432857608091821c91015b600160401b821061433b57604091821c91015b600160201b821061434e57602091821c91015b62010000821061436057601091821c91015b610100821061437157600891821c91015b6010821061438157600491821c91015b6004821061439157600291821c91015b600282106129d957600101919050565b60008082116143af57600080fd5b5060ff6001600160801b038216156143ca57607f19016143d2565b608082901c91505b6001600160401b038216156143ea57603f19016143f2565b604082901c91505b63ffffffff82161561440757601f190161440f565b602082901c91505b61ffff82161561442257600f190161442a565b601082901c91505b60ff82161561443c5760071901614444565b600882901c91505b600f821615614456576003190161445e565b600482901c91505b60038216156144705760011901614478565b600282901c91505b60018216156129d95760001901919050565b6000836001600160a01b0316856001600160a01b031611156144aa579293925b816144d7576144d2836001600160801b03168686036001600160a01b0316600160601b6130bc565b6144fa565b6144fa836001600160801b03168686036001600160a01b0316600160601b613f56565b90505b949350505050565b6000836001600160a01b0316856001600160a01b03161115614525579293925b600160601b600160e01b03606084901b166001600160a01b03868603811690871661454f57600080fd5b8361457f57866001600160a01b03166145728383896001600160a01b03166130bc565b8161457957fe5b046145a5565b6145a56145968383896001600160a01b0316613f56565b886001600160a01b0316614b0d565b979650505050505050565b600080856001600160a01b0316116145c757600080fd5b6000846001600160801b0316116145dd57600080fd5b816145ef576144d28585856001614b18565b6144fa8585856001614bf9565b600080856001600160a01b03161161461357600080fd5b6000846001600160801b03161161462957600080fd5b8161463b576144d28585856000614bf9565b6144fa8585856000614b18565b614650615419565b600085600001518503905060405180608001604052808663ffffffff1681526020018263ffffffff168660020b0288602001510160060b81526020016000856001600160801b0316116146a45760016146a6565b845b6001600160801b031663ffffffff60801b608085901b16816146c457fe5b048860400151016001600160a01b0316815260200160011515815250915050949350505050565b6146f3615419565b6146fb615419565b888561ffff1661ffff811061470c57fe5b60408051608081018252919092015463ffffffff8116808352600160201b8204600690810b810b900b6020840152600160581b82046001600160a01b031693830193909352600160f81b900460ff1615156060820152925061477090899089614cdc565b156147a8578663ffffffff16826000015163ffffffff161415614792576132f2565b8161479f83898988614648565b915091506132f2565b888361ffff168660010161ffff16816147bd57fe5b0661ffff1661ffff81106147cd57fe5b60408051608081018252929091015463ffffffff81168352600160201b8104600690810b810b900b60208401526001600160a01b03600160581b8204169183019190915260ff600160f81b9091041615156060820181905290925061488257604080516080810182528a5463ffffffff81168252600160201b8104600690810b810b900b6020830152600160581b81046001600160a01b031692820192909252600160f81b90910460ff161515606082015291505b61489188836000015189614cdc565b6148c8576040805162461bcd60e51b815260206004820152600360248201526213d31160ea1b604482015290519081900360640190fd5b6148d58989898887614d9d565b9150915097509795505050505050565b60006148f46007878787613f90565b60015460025491925090600080600f87900b15614a3a576000614915612a15565b600080546004549293509091829161495f9160089186918591600160a01b810460020b9161ffff600160b81b83048116926001600160801b0390921691600160c81b90041661316c565b909250905061499960058d8b8d8b8b87898b60007f0000000000000000000000000000000000000000000000000000000000000000614f3b565b94506149d060058c8b8d8b8b87898b60017f0000000000000000000000000000000000000000000000000000000000000000614f3b565b93508415614a0457614a0460068d7f00000000000000000000000000000000000000000000000000000000000000006150f4565b8315614a3657614a3660068c7f00000000000000000000000000000000000000000000000000000000000000006150f4565b5050505b600080614a4c60058c8c8b8a8a61515a565b9092509050614a5d878a8484615206565b600089600f0b1215614a8b578315614a7a57614a7a60058c61539b565b8215614a8b57614a8b60058b61539b565b50505050505095945050505050565b60008082600f0b12614ac057614abb614ab68585856001614505565b613074565b6144fd565b614ad3614ab68585856000036000614505565b600003949350505050565b60008082600f0b12614afa57614abb614ab6858585600161448a565b614ad3614ab6858585600003600061448a565b808204910615150190565b60008115614b8b5760006001600160a01b03841115614b4e57614b4984600160601b876001600160801b03166130bc565b614b66565b6001600160801b038516606085901b81614b6457fe5b045b9050614b83614b7e6001600160a01b03881683613b67565b6153c7565b9150506144fd565b60006001600160a01b03841115614bb957614bb484600160601b876001600160801b0316613f56565b614bd0565b614bd0606085901b6001600160801b038716614b0d565b905080866001600160a01b031611614be757600080fd5b6001600160a01b0386160390506144fd565b600082614c075750836144fd565b600160601b600160e01b03606085901b168215614c95576001600160a01b03861684810290858281614c3557fe5b041415614c6657818101828110614c6457614c5a83896001600160a01b031683613f56565b93505050506144fd565b505b614c8c82614c87878a6001600160a01b03168681614c8057fe5b0490613b67565b614b0d565b925050506144fd565b6001600160a01b03861684810290858281614cac57fe5b04148015614cb957508082115b614cc257600080fd5b808203614c5a614b7e846001600160a01b038b1684613f56565b60008363ffffffff168363ffffffff1611158015614d0657508363ffffffff168263ffffffff1611155b15614d22578163ffffffff168363ffffffff1611159050613165565b60008463ffffffff168463ffffffff1611614d49578363ffffffff16600160201b01614d51565b8363ffffffff165b64ffffffffff16905060008563ffffffff168463ffffffff1611614d81578363ffffffff16600160201b01614d89565b8363ffffffff165b64ffffffffff169091111595945050505050565b614da5615419565b614dad615419565b60008361ffff168560010161ffff1681614dc357fe5b0661ffff169050600060018561ffff16830103905060005b506002818301048961ffff87168281614df057fe5b0661ffff8110614dfc57fe5b60408051608081018252929091015463ffffffff81168352600160201b8104600690810b810b900b60208401526001600160a01b03600160581b8204169183019190915260ff600160f81b90910416151560608201819052909550614e6657806001019250614ddb565b898661ffff168260010181614e7757fe5b0661ffff8110614e8357fe5b60408051608081018252929091015463ffffffff81168352600160201b8104600690810b810b900b60208401526001600160a01b03600160581b8204169183019190915260ff600160f81b90910416151560608201528551909450600090614eed908b908b614cdc565b9050808015614f065750614f068a8a8760000151614cdc565b15614f115750614f2e565b80614f2157600182039250614f28565b8160010193505b50614ddb565b5050509550959350505050565b60028a810b900b600090815260208c90526040812080546001600160801b031682614f66828d6133b8565b9050846001600160801b0316816001600160801b03161115614fb4576040805162461bcd60e51b81526020600482015260026024820152614c4f60f01b604482015290519081900360640190fd5b6001600160801b038281161590821615811415945015615059578c60020b8e60020b1361504157600183018b9055600283018a9055600383018054600160381b600160d81b031916600160381b6001600160a01b038c16021766ffffffffffffff191666ffffffffffffff60068b900b161763ffffffff60d81b1916600160d81b63ffffffff8a16021790555b6003830180546001600160f81b0316600160f81b1790555b82546001600160801b0319166001600160801b038216178355856150a257825461509d9061509890600160801b9004600f90810b810b908f900b6130a6565b613d05565b6150c3565b82546150c39061509890600160801b9004600f90810b810b908f900b61308a565b8354600f9190910b6001600160801b03908116600160801b0291161790925550909c9b505050505050505050505050565b8060020b8260020b8161510357fe5b0760020b1561511157600080fd5b60008061512c8360020b8560020b8161512657fe5b056142f5565b600191820b820b60009081526020979097526040909620805460ff9097169190911b90951890945550505050565b600285810b80820b60009081526020899052604080822088850b850b83529082209193849391929184918291908a900b126151a0575050600182015460028301546151b3565b8360010154880391508360020154870390505b6000808b60020b8b60020b12156151d5575050600183015460028401546151e8565b84600101548a0391508460020154890390505b92909803979097039b96909503949094039850939650505050505050565b6040805160a08101825285546001600160801b0390811682526001870154602083015260028701549282019290925260038601548083166060830152600160801b900490911660808201526000600f85900b6152a55781516001600160801b031661529d576040805162461bcd60e51b815260206004820152600260248201526104e560f41b604482015290519081900360640190fd5b5080516152b4565b81516152b190866133b8565b90505b60006152d88360200151860384600001516001600160801b0316600160801b6130bc565b905060006152fe8460400151860385600001516001600160801b0316600160801b6130bc565b905086600f0b6000146153255787546001600160801b0319166001600160801b0384161788555b60018801869055600288018590556001600160801b03821615158061535357506000816001600160801b0316115b15615391576003880180546001600160801b031981166001600160801b039182168501821617808216600160801b9182900483168501909216021790555b5050505050505050565b600290810b810b6000908152602092909252604082208281556001810183905590810182905560030155565b806001600160a01b03811681146129d957600080fd5b6040805160e081018252600080825260208201819052918101829052606081018290526080810182905260a0810182905260c081019190915290565b6040805160808101825260008082526020820181905291810182905260608101919091529056fea164736f6c6343000706000aa164736f6c6343000706000ac66a3fdf07232cdd185febcc6579d408c241b47ae2f9907d84be655141eeaecc",
  "devdoc": {
    "kind": "dev",
    "methods": {
      "createPool(address,address,uint24)": {
        "details": "tokenA and tokenB may be passed in either order: token0/token1 or token1/token0. tickSpacing is retrieved from the fee. The call will revert if the pool already exists, the fee is invalid, or the token arguments are invalid.",
        "params": {
          "fee": "The desired fee for the pool",
          "tokenA": "One of the two tokens in the desired pool",
          "tokenB": "The other of the two tokens in the desired pool"
        },
        "returns": {
          "pool": "The address of the newly created pool"
        }
      },
      "enableFeeAmount(uint24,int24)": {
        "details": "Fee amounts may never be removed once enabled",
        "params": {
          "fee": "The fee amount to enable, denominated in hundredths of a bip (i.e. 1e-6)",
          "tickSpacing": "The spacing between ticks to be enforced for all pools created with the given fee amount"
        }
      },
      "setOwner(address)": {
        "details": "Must be called by the current owner",
        "params": {
          "_owner": "The new owner of the factory"
        }
      }
    },
    "stateVariables": {
      "feeAmountTickSpacing": {
        "details": "A fee amount can never be removed, so this value should be hard coded or cached in the calling context",
        "params": {
          "fee": "The enabled fee, denominated in hundredths of a bip. Returns 0 in case of unenabled fee"
        },
        "return": "The tick spacing"
      },
      "getPool": {
        "details": "tokenA and tokenB may be passed in either token0/token1 or token1/token0 order",
        "params": {
          "fee": "The fee collected upon every swap in the pool, denominated in hundredths of a bip",
          "tokenA": "The contract address of either token0 or token1",
          "tokenB": "The contract address of the other token"
        },
        "return": "pool The pool address"
      },
      "owner": {
        "details": "Can be changed by the current owner via setOwner",
        "return": "The address of the factory owner"
      }
    },
    "title": "Canonical Uniswap V3 factory",
    "version": 1
  },
  "userdoc": {
    "events": {
      "FeeAmountEnabled(uint24,int24)": {
        "notice": "Emitted when a new fee amount is enabled for pool creation via the factory"
      },
      "OwnerChanged(address,address)": {
        "notice": "Emitted when the owner of the factory is changed"
      },
      "PoolCreated(address,address,uint24,int24,address)": {
        "notice": "Emitted when a pool is created"
      }
    },
    "kind": "user",
    "methods": {
      "createPool(address,address,uint24)": {
        "notice": "Creates a pool for the given two tokens and fee"
      },
      "enableFeeAmount(uint24,int24)": {
        "notice": "Enables a fee amount with the given tickSpacing"
      },
      "feeAmountTickSpacing(uint24)": {
        "notice": "Returns the tick spacing for a given fee amount, if enabled, or 0 if not enabled"
      },
      "getPool(address,address,uint24)": {
        "notice": "Returns the pool address for a given pair of tokens and a fee, or address 0 if it does not exist"
      },
      "owner()": {
        "notice": "Returns the current owner of the factory"
      },
      "parameters()": {
        "notice": "Get the parameters to be used in constructing the pool, set transiently during pool creation."
      },
      "setOwner(address)": {
        "notice": "Updates the owner of the factory"
      }
    },
    "notice": "Deploys Uniswap V3 pools and manages ownership and control over pool protocol fees",
    "version": 1
  },
  "storageLayout": {
    "storage": [
      {
        "astId": 2948,
        "contract": "contracts/UniswapV3Factory.sol:UniswapV3Factory",
        "label": "parameters",
        "offset": 0,
        "slot": "0",
        "type": "t_struct(Parameters)2944_storage"
      },
      {
        "astId": 56,
        "contract": "contracts/UniswapV3Factory.sol:UniswapV3Factory",
        "label": "owner",
        "offset": 0,
        "slot": "3",
        "type": "t_address"
      },
      {
        "astId": 62,
        "contract": "contracts/UniswapV3Factory.sol:UniswapV3Factory",
        "label": "feeAmountTickSpacing",
        "offset": 0,
        "slot": "4",
        "type": "t_mapping(t_uint24,t_int24)"
      },
      {
        "astId": 72,
        "contract": "contracts/UniswapV3Factory.sol:UniswapV3Factory",
        "label": "getPool",
        "offset": 0,
        "slot": "5",
        "type": "t_mapping(t_address,t_mapping(t_address,t_mapping(t_uint24,t_address)))"
      }
    ],
    "types": {
      "t_address": {
        "encoding": "inplace",
        "label": "address",
        "numberOfBytes": "20"
      },
      "t_int24": {
        "encoding": "inplace",
        "label": "int24",
        "numberOfBytes": "3"
      },
      "t_mapping(t_address,t_mapping(t_address,t_mapping(t_uint24,t_address)))": {
        "encoding": "mapping",
        "key": "t_address",
        "label": "mapping(address => mapping(address => mapping(uint24 => address)))",
        "numberOfBytes": "32",
        "value": "t_mapping(t_address,t_mapping(t_uint24,t_address))"
      },
      "t_mapping(t_address,t_mapping(t_uint24,t_address))": {
        "encoding": "mapping",
        "key": "t_address",
        "label": "mapping(address => mapping(uint24 => address))",
        "numberOfBytes": "32",
        "value": "t_mapping(t_uint24,t_address)"
      },
      "t_mapping(t_uint24,t_address)": {
        "encoding": "mapping",
        "key": "t_uint24",
        "label": "mapping(uint24 => address)",
        "numberOfBytes": "32",
        "value": "t_address"
      },
      "t_mapping(t_uint24,t_int24)": {
        "encoding": "mapping",
        "key": "t_uint24",
        "label": "mapping(uint24 => int24)",
        "numberOfBytes": "32",
        "value": "t_int24"
      },
      "t_struct(Parameters)2944_storage": {
        "encoding": "inplace",
        "label": "struct UniswapV3PoolDeployer.Parameters",
        "members": [
          {
            "astId": 2935,
            "contract": "contracts/UniswapV3Factory.sol:UniswapV3Factory",
            "label": "factory",
            "offset": 0,
            "slot": "0",
            "type": "t_address"
          },
          {
            "astId": 2937,
            "contract": "contracts/UniswapV3Factory.sol:UniswapV3Factory",
            "label": "token0",
            "offset": 0,
            "slot": "1",
            "type": "t_address"
          },
          {
            "astId": 2939,
            "contract": "contracts/UniswapV3Factory.sol:UniswapV3Factory",
            "label": "token1",
            "offset": 0,
            "slot": "2",
            "type": "t_address"
          },
          {
            "astId": 2941,
            "contract": "contracts/UniswapV3Factory.sol:UniswapV3Factory",
            "label": "fee",
            "offset": 20,
            "slot": "2",
            "type": "t_uint24"
          },
          {
            "astId": 2943,
            "contract": "contracts/UniswapV3Factory.sol:UniswapV3Factory",
            "label": "tickSpacing",
            "offset": 23,
            "slot": "2",
            "type": "t_int24"
          }
        ],
        "numberOfBytes": "96"
      },
      "t_uint24": {
        "encoding": "inplace",
        "label": "uint24",
        "numberOfBytes": "3"
      }
    }
  }
}